:100000000AC00FC00EC00DC00CC00BC00AC009C092
:1000100008C007C0000011241FBECFE9CDBF1CD00F
:1000200034C0EECF85B7877E806185BF8FEF87BBF9
:1000300018BA96B13798F89485B7806285BF80B7B3
:10004000836080BF8E7F80BF7894889585B78F7DD1
:1000500085BF789496B908958FE187BB18BAC4E13B
:10006000D0E088E691E0FE01249128BBE0EAF1E0CF
:100070003197F1F7000018BAEFE8F1EC3197F1F79A
:0E00800000C0019781F7CEDFECCFF894FFCFE0
:00000001FF
